:020000040800F2
:1000000000000220B9020008C1020008C502000871
:10001000390300083D0300088503000800000000C4
:10002000000000000000000000000000CD030008F8
:10003000D103000800000000D5030008C9450008EE
:10004000E9030008E9030008E9030008E9030008E0
:10005000E9030008E9030008E9030008E9030008D0
:10006000E9030008E9030008E9030008E9030008C0
:10007000E9030008E9030008E9030008E9030008B0
:10008000E9030008E9030008E9030008E9030008A0
:10009000E9030008E9030008E9030008E903000890
:1000A000E9030008E9030008E9030008E903000880
:1000B000E9030008E9030008E9030008E903000870
:1000C000E9030008E9030008E9030008E903000860
:1000D000153F0008E9030008E9030008E9030008E8
:1000E000E9030008E9030008E9030008E903000840
:1000F000E9030008E9030008E9030008E903000830
:10010000E9030008E9030008E9030008253F0008A7
:10011000E9030008E903000825310008E9030008A5
:10012000E9030008E9030008E9030008E9030008FF
:10013000E9030008E9030008E9030008E9030008EF
:10014000E9030008E9030008E9030008E9030008DF
:10015000E9030008E9030008E9030008E9030008CF
:10016000E9030008E9030008E9030008E9030008BF
:10017000E9030008E9030008E903000800000000A3
:10018000E9030008E903000800B583B003F094FA1E
:10019000384B394A1360394A136039490CE00A6810
:1001A0004B6801F10C04886803E01168196004339E
:1001B00004329842F9D82146324B9942EFD32E4B64
:1001C0001A68314B9A4204D12C4B1A682F4B9A4231
:1001D00000D0FEE7274B2E4A13602E4A13602E4BA9
:1001E0000AE0194651F8082B5B6802E00020106015
:1001F00004329A42FAD30B46284A9342F1D3244B55
:100200001B6813B9234B1B6803B1FEE704F09EFA89
:10021000694601A803F0E0F9214C224B1C1BA410F5
:10022000002504E01E4B53F8253098470135AC42B9
:10023000F8DC1D4C1D4B1C1BA410002504E01A4BC0
:1002400053F8253098470135AC42F8DC0099019805
:1002500004F086FA0546164C164B1C1BA41004E04D
:10026000013C134B53F824309847002CF8DC284607
:1002700003F084F9BABADECA000000208C00002026
:10028000EC030008040400087856341232547698BF
:1002900090000020F808002004040008140400085E
:1002A00014040008140400081404000814040008CE
:1002B000140400081404000808B5FFF765FF00BF28
:1002C00000BEFEE71EF0040F0CBFEFF30880EFF353
:1002D00009807146414A10472DE9F04182B0044639
:1002E0008846134B5E6B9F6B9D6A1B6B13F0020F6E
:1002F0000DD00F4BDB6A002B09DA4BF6AB6103F034
:100300005FFA20B14FF00042094BDA620CE0094875
:1003100003F074F9CDF800803B463246294620466A
:1003200003F0D6F900BEFEE702B0BDE8F08100BFE1
:1003300000ED00E0A08E000800BEFEE71EF0040FF6
:100340000CBFEFF30880EFF309807146244A104791
:100350002DE9F04182B004468846084B5E6B9F6BE6
:100360009D6A074803F04AF9CDF800803B463246C3
:100370002946204603F0ACF900BEFEE700ED00E0A0
:10038000B08E00081EF0040F0CBFEFF30880EFF3EF
:1003900009807146134A10472DE9F04182B00446A6
:1003A0008846084B5E6B9F6B9D6A074803F026F9F1
:1003B000CDF800803B4632462946204603F088F9B6
:1003C00000BEFEE700ED00E0BC8E000800BEFEE7C8
:1003D00000BEFEE700BEFEE770470000D90200083D
:0C03E000510300089903000800BEFEE76E
:1003EC00409100080000002090000020409100087F
:1003FC00000000100000001090000020FC080020FD
:08040C000000001000000010C8
:1004200008B50B4B1A6842F400721A601A6842F45D
:1004300080621A601A6842F480721A60032000F029
:100440002BFC0F2002F026FE04F02CFD002008BD3E
:10045000003C0240024A136801331360704700BF3A
:1004600060010020014B1868704700BF6001002048
:1004700010B50446504B5A6822F440325A6059680D
:1004800042680A435A600268536823F480735360D9
:1004900002685368016943EA0123536002685368A4
:1004A00023F0407353600268516883680B435360C4
:1004B0000268936823F40063936002689168C368DC
:1004C0000B439360826A3D4B9A4214D00268936852
:1004D00023F07063936002689168836A0B439360B2
:1004E0000268936823F04053936002689168C36A7E
:1004F0000B43936009E00268936823F07063936094
:100500000268936823F0405393602268936823F055
:100510000203936022689368A16943EA41039360F0
:10052000236A03B3636A013B072B04D940F20461D9
:10053000234803F059F82268536843F4006353607A
:100540002268536823F460435360636A013B4FF4AD
:10055000604292FAA2F2B2FA82F2934021684A68AB
:1005600013434B6004E02268536823F40063536034
:100570002268D36A23F47003D3622168CA6AE369EC
:10058000013B42EA0353CB622268936823F4007371
:10059000936022689368216B43EA41239360226849
:1005A000936823F48063936022689368616943EAE7
:1005B0008123936010BD00BF002301400100000FA4
:1005C0003C8B0008704700BF002800F0DE8010B5AB
:1005D000044603686E4A93420CD002F5807293423F
:1005E00008D002F58072934204D040F20D116948A0
:1005F00002F0FAFF63686BB1B3F5803F0AD0B3F540
:10060000003F07D0B3F5403F04D04FF487716148F5
:1006100002F0EAFFA3686BB1B3F1807F0AD0B3F1B7
:10062000007F07D0B3F1407F04D040F20F1159484A
:1006300002F0DAFF2369012B04D94FF48871554881
:1006400002F0D2FFA369012B04D940F211115148E5
:1006500002F0CAFFA36AA3B3B3F1807F31D0B3F134
:10066000007F2ED0B3F1407F2BD0B3F1806F28D024
:10067000B3F1A06F25D0B3F1C06F22D0B3F1E06F1A
:100680001FD0B3F1006F1CD0B3F1106F19D0B3F1CC
:10069000206F16D0B3F1306F13D0B3F1406F10D08C
:1006A000B3F1506F0DD0B3F1606F0AD0B3F1706F3A
:1006B00007D0394A934204D04FF48971354802F08B
:1006C00093FFE3683BB1B3F5006F04D040F2131120
:1006D000304802F089FFE369013B0F2B04D94FF446
:1006E0008A712C4802F080FF236B012B04D940F261
:1006F0001511284802F078FF6369022B04D94FF4E2
:100700008B71244802F070FF236A012B04D940F258
:100710001711204802F068FFA26A1F4B9A420FD0BF
:10072000E36A6BB1B3F1805F0AD0B3F1005F07D029
:10073000B3F1405F04D040F21B11164802F054FFA1
:10074000236C2BB9636484F83C302046FFF73AFFF2
:10075000236C13F0100F13D1236C23F4885323F070
:10076000020343F0020323642046FFF781FE0020CA
:100770006064236C23F0030343F00103236400E06F
:100780000120002384F83C3010BD0120704700BFD9
:10079000002001403C8B00080100000F10B582B022
:1007A0000446002301938369012B04D94FF4DD71C2
:1007B000414802F019FFE36A6BB1B3F1805F0AD0E0
:1007C000B3F1005F07D0B3F1405F04D040F2BB113A
:1007D000394802F009FF94F83C30012B61D0012325
:1007E00084F83C3023689A6812F0010F13D19A689C
:1007F00042F001029A60314B1B68314AA2FB03238D
:100800009B0C03EB4303019302E0019B013B01932B
:10081000019B002BF9D12268936813F0010F42D09D
:10082000236C23F4E06323F0010343F48073236417
:10083000536813F4806F05D0236C23F4405343F4C2
:1008400080532364236C13F4805F04D0636C23F023
:100850000603636401E000236364002384F83C30F2
:100860006FF002031360174B5B6813F01F0F0AD180
:1008700023689A6812F0405F17D19A6842F080426C
:100880009A60002016E023680F4A93420FD19A68BD
:1008900012F0405F0DD19A6842F080429A600020C9
:1008A00008E0022006E0002004E0002002E0002032
:1008B00000E0002002B010BD3C8B00080C000020BE
:1008C00083DE1B43002301400020014070B582B04D
:1008D00004460D461646002301938369012B04D973
:1008E00040F2FA314F4802F07FFEE36A6BB1B3F198
:1008F000805F0AD0B3F1005F07D0B3F1405F04D04E
:1009000040F2FB31474802F06FFE94F83C30012B77
:100910007CD0012384F83C3023689A6812F0010FE0
:1009200013D19A6842F001029A603F4B1B683F4A1C
:10093000A2FB03239B0C03EB4303019302E0019B07
:10094000013B0193019B002BF9D12268936813F0BE
:10095000010F5DD0236C23F4E06323F0010343F423
:1009600080732364536813F4806F05D0236C23F4E1
:10097000405343F480532364236C13F4805F04D00A
:10098000636C23F00603636401E0002363640023C7
:1009900084F83C30A36B264ADA63A36B254A1A64B9
:1009A000A36B254A9A6423686FF002021A602268DA
:1009B000536843F0806353602268936843F4807304
:1009C0009360216833462A464C31A06B00F050FBFF
:1009D0001A4B5B6813F01F0F0AD123689A6812F054
:1009E000405F17D19A6842F080429A60002016E07A
:1009F0002368134A93420FD19A6812F0405F0DD1D9
:100A00009A6842F080429A60002008E0022006E0E6
:100A1000002004E0002002E0002000E0002002B0FE
:100A200070BD00BF3C8B00080C00002083DE1B4320
:100A3000490A0008B10A0008C10A00080023014061
:100A400000200140704700BF08B5836B1A6C12F09C
:100A5000500F26D11A6C42F400721A641A68916819
:100A600011F0405F19D19969B9B9D16A11F4700FC9
:100A700003D0916811F4806F0FD1516821F02001EB
:100A800051601A6C22F480721A641A6C12F4805F3E
:100A900003D11A6C42F001021A641846FFF7D2FF24
:100AA00008BD9B6B9B6C984708BD00BF704700BF9B
:100AB00008B5806BFFF7FAFF08BD00BF704700BFA5
:100AC00008B5806B40230364436C43F00403436424
:100AD000FFF7F4FF08BD00BF30B583B005460C46F4
:100AE000002301930B68122B04D940F2FE416648A3
:100AF00002F07AFD6368013B0F2B04D940F2FF41FD
:100B0000614802F071FDA368072B04D94FF4A0617E
:100B10005D4802F069FD95F83C30012B00F0B18092
:100B2000012385F83C302368092B17D92868C2684F
:100B30009BB203EB43031E3B072101FA03F322EAB6
:100B40000303C3602968C868A268238803EB4303D2
:100B50001E3B02FA03F30343CB6013E028680269EB
:100B60009BB203EB4303072101FA03F322EA0303D9
:100B7000036129680869A368228802EB4202934056
:100B800003430B616368062B16D82868426B03EB9E
:100B90008303053B1F2101FA03F322EA03034363A6
:100BA0002968486B2288636803EB8303053B02FADC
:100BB00003F303434B632EE00C2B16D82868026B1B
:100BC00003EB8303233B1F2101FA03F322EA030310
:100BD00003632968086B2288636803EB8303233B64
:100BE00002FA03F303430B6315E02868C26A03EBC0
:100BF0008303413B1F2101FA03F322EA0303C3628B
:100C00002968C86A2288636803EB8303413B02FAC0
:100C100003F30343CB622A681C4B9A4207D1236833
:100C2000122B04D11A4A536843F4800353602A6894
:100C3000164B9A4221D12368103B012B1DD8144A30
:100C4000536843F4000353602368102B15D1114BF4
:100C50001B6802F1467202F52E3202F28332A2FBC9
:100C600003239B0C03EB83035A00019202E0019BD8
:100C7000013B0193019B002BF9D1002085F83C003A
:100C800000E0022003B030BD3C8B00080020014092
:100C9000002301400C00002010B50446C31E042BA5
:100CA00003D9A421094802F09FFC094AD36823F420
:100CB000E0631B041B0C240204F4E064234343F0B0
:100CC000BF6343F40033D36010BD00BF6C8B0008DA
:100CD00000ED00E070B504460E4615460F2A03D914
:100CE000BC211A4802F080FC0F2E03D9BD21174801
:100CF00002F07AFC164BDA68C2F30222C2F1070155
:100D0000042928BF0421131D062B01D9033A00E052
:100D10000022012303FA01F101393140914003FA25
:100D200002F2013A2A400A43002C06DA04F00F04CA
:100D30001201D2B2074B1A5570BD1201D2B204F1A2
:100D4000604404F5614484F8002370BD6C8B000896
:100D500000ED00E014ED00E010B5041E03DAD02130
:100D6000064802F041FC620904F01F04012303FA63
:100D700004F4034B43F8224010BD00BF6C8B000805
:100D800000E100E00138B0F1807F0AD2064B5860E4
:100D9000F021064A82F823100020986007221A608A
:100DA00070470120704700BF10E000E000ED00E058
:100DB00010B50446042805D020B140F2B31108480C
:100DC00002F012FC042C05D1064A136843F0040318
:100DD000136010BD034A136823F00403136010BDB1
:100DE0006C8B000810E000E030B405682C6824F437
:100DF00080242C60046863608368402B04D10368FE
:100E00009A600368D96003E0036899600368DA6058
:100E100030BC70470268D3B2103B0B49A1FB0313EF
:100E20001B090A49C95C4165032B06D922F47F726C
:100E300022F003020432026504E022F47F7222F001
:100E400003020265006D7047ABAAAAAAA08B000836
:100E5000002800F0048110B504460368814A9342DB
:100E600031D0183293422ED0183293422BD0183200
:100E7000934228D01832934225D01832934222D080
:100E8000183293421FD0183293421CD002F556728A
:100E9000934218D01832934215D01832934212D090
:100EA000183293420FD0183293420CD0183293422A
:100EB00009D01832934206D01832934203D0C5218C
:100EC000694802F091FB6368C3B1B3F1007F15D0AC
:100ED000B3F1806F12D0B3F1C06F0FD0B3F1006FD8
:100EE0000CD0B3F1206F09D0B3F1406F06D0B3F14D
:100EF000606F03D0C6215C4802F076FBA3683BB16B
:100F0000402B05D0802B03D0C721574802F06CFB43
:100F1000E368B3F5007F04D01BB1C821524802F04A
:100F200063FB2369B3F5806F04D01BB1C9214E4820
:100F300002F05AFB63694BB1B3F5006F06D0B3F50D
:100F4000805F03D0CA21484802F04EFBA3694BB131
:100F5000B3F5005F06D0B3F5804F03D0CB214248F4
:100F600002F042FBE36943B1B3F5807F05D0202B4B
:100F700003D0CC213C4802F037FB236A63B1B3F5C0
:100F8000803F09D0B3F5003F06D0B3F5403F03D012
:100F9000CD21354802F028FB636A2BB1042B03D026
:100FA000CE21314802F020FB636A23B3A36A032BEE
:100FB00003D9D3212C4802F017FBE36A63B1B3F5E0
:100FC000000F09D0B3F1807F06D0B3F1C07F03D00A
:100FD000D421254802F008FB236B63B1B3F5001F51
:100FE00009D0B3F5800F06D0B3F5C00F03D0D521DB
:100FF0001D4802F0F9FA022384F8353020680368AE
:101000001A4919406268A3681A43E3681A432369BE
:101010001A4363691A43A3691A43E3691343226AB3
:101020001A4341EA0203626A042A03D1E16A226B8D
:101030000A43134303602268536923F00703616A7C
:101040000B43042901D1A16A0B4353612046FFF7EA
:10105000E1FE0020E064012384F8353010BD01205A
:10106000704700BF10600240A88B00083F8010F05E
:10107000F8B590F83440012C2FD01D4616460F4687
:101080000446012380F83430022380F835306A1E8C
:101090004FF6FE739A4204D940F29911104802F0BB
:1010A000A3FA2068036823F0010303602B4632464D
:1010B00039462046FFF798FE2268136843F01E0366
:1010C00013602268536943F08003536122681368F8
:1010D00043F0010313600020F8BD0220F8BD00BFFB
:1010E000A88B00082DE9F04782B080460F46A44B3C
:1010F000984223D003F5806398421FD003F58063A4
:1011000098421BD003F58063984217D003F58063A3
:10111000984213D003F5806398420FD003F58063A3
:1011200098420BD003F58063984207D003F58063A3
:10113000984203D0C521934802F056FA3B881BB968
:10114000C621904802F050FA7B68012B22D9112B5E
:1011500020D0022B1ED0122B1CD08B4A934219D0C8
:1011600002F58012934215D002F58012934211D0FD
:10117000A2F5F81293420DD002F58012934209D0E5
:1011800002F58012934205D0032B03D0C7217D487E
:1011900002F02AFABB68022B03D9C821794802F071
:1011A00023FA00252CE10124AC403E682640B442DD
:1011B00040F025817B68022B01D0122B4AD13B697C
:1011C000C3B3092B36D0ABB3A3B39BB393B3012BFB
:1011D00030D02FD0022B2DD02CD02BD0032B29D0C8
:1011E000042B27D026D025D0052B23D022D0092BA5
:1011F00020D0062B1ED0092B1CD0072B1AD019D0BB
:1012000018D0082B16D015D014D0092B12D011D01D
:101210000A2B0FD00ED00B2B0CD00C2B0AD009D0E0
:101220000D2B07D00C2B05D00F2B03D0D9215548FF
:1012300002F0DAF9EA08083258F8220005F007034C
:1012400099000F238B4020EA03003B698B40034346
:1012500048F82230D8F800304FEA450A4FF0030929
:1012600009FA0AF96FEA090903EA09027B6803F03F
:10127000030303FA0AF31343C8F800307B685A1ECD
:10128000012A03D9112B01D0122B1BD1FB68032B90
:1012900003D9EC213B4802F0A7F9D8F8083009EA55
:1012A0000302FB6803FA0AF31343C8F80830D8F8BE
:1012B000043023EA04047B68C3F30013AB401C43EF
:1012C000C8F80440D8F80C3009EA0309BB6803FAEF
:1012D0000AF349EA0303C8F80C307B6813F0805F17
:1012E00000F08D8000230193284B5A6C42F4804219
:1012F0005A645B6C03F480430193019BA9088A1C28
:10130000234B53F8220005F003039B000F229A4061
:1013100020EA02001A4A904521D002F580629045E9
:101320001FD002F5806290451DD002F58062904585
:101330001BD002F58062904519D002F5806290457D
:1013400017D002F58062904515D002F58062904575
:1013500013D002F5806290451CD108221BE00022C8
:1013600019E0012217E0022215E0032213E0042213
:1013700011E005220FE006220DE007220BE000BF7E
:1013800000000240D88B0008000011100038024015
:1013900000380140092202FA03F3034302311B4AD9
:1013A00042F821301A4B1A68F34302EA03017868C5
:1013B00010F4803F01D046EA0201154A11605268DC
:1013C00003EA0201786810F4003F01D046EA020106
:1013D0000F4A5160926803EA0201786810F4801F96
:1013E00001D046EA02010A4A9160D2681340796846
:1013F00011F4001F01D046EA0203054AD36001350B
:101400000F2D7FF6D0AE02B0BDE8F0870038014066
:10141000003C014038B505460C4621B94FF4C8716F
:10142000044802F0E1F82B691C4201D0012038BDCC
:10143000002038BDD88B000870B5064615460C460E
:1014400021B940F2B111084802F0CEF8012D04D9BB
:101450004FF4D971044802F0C7F80DB1B46170BD02
:101460002404B46170BD00BFD88B000830B583B0D0
:10147000044603680F2B03D9F6219C4802F0B4F808
:10148000236813F0010F45D06368012B05D9052BA4
:1014900003D0FB21954802F0A7F8954B9B6803F019
:1014A0000C03042B0AD0924B9B6803F00C03082B0F
:1014B0000CD18F4B5B6813F4800F07D08C4B1B68EB
:1014C00013F4003F26D0636823BBCCE12279894B1B
:1014D0001A7063687BB1FEF7C5FF054605E0FEF7AD
:1014E000C1FF401B642800F2C081814B1B6813F4CC
:1014F000003FF4D00EE0FEF7B5FF054605E0FEF72D
:10150000B1FF401B642800F2B281794B1B6813F4D1
:10151000003FF4D1236813F0020F6AD0E368012B77
:1015200004D940F22D11714802F05EF823691F2B97
:1015300004D94FF497716D4802F056F86C4B9B68D4
:1015400013F00C0F0AD06A4B9B6803F00C03082BB6
:101550001BD1674B5B6813F4800F16D1644B1B687B
:1015600013F0020F03D0E368012B40F08281604842
:10157000036823F0F8012369F82292FAA2F2B2FA82
:1015800082F293400B43036033E0E368FBB1012236
:10159000594B1A60FEF766FF054605E0FEF762FF4D
:1015A000401B022800F26781514B1B6813F0020FA9
:1015B000F4D04F48036823F0F8012369F82292FA27
:1015C000A2F2B2FA82F293400B43036011E00022D0
:1015D000494B1A60FEF746FF054605E0FEF742FF5D
:1015E000401B022800F24981414B1B6813F0020F97
:1015F000F4D1236813F0080F2ED06369012B04D9AE
:101600004FF4B771394801F0EFFF636993B10122DC
:101610003A4B1A60FEF726FF054605E0FEF722FF6B
:10162000401B022800F22B81314B5B6F13F0020F3D
:10163000F4D011E00022314B1A60FEF713FF05468B
:1016400005E0FEF70FFF401B022800F21A81284B2D
:101650005B6F13F0020FF4D1236813F0040F60D016
:10166000A368012B06D9052B04D04FF4CC711F4879
:1016700001F0BAFF002301931D4B1A6C42F0805217
:101680001A641B6C03F080530193019B1C4A13687E
:1016900043F480731360FEF7E5FE054605E0FEF7B0
:1016A000E1FE401B022800F2EE80154B1B6813F48C
:1016B000807FF4D0227A134B1A70A3688BB1FEF7A7
:1016C000D1FE054607E0FEF7CDFE401B41F2883310
:1016D000984200F2DA80064B1B6F13F0020FF2D033
:1016E0001FE0FEF7BFFE054616E000BF188C00089D
:1016F000003802400238024000004742800E474254
:101700000070004070380240FEF7ACFE401B41F212
:101710008833984200F2BB80634B1B6F13F0020FBB
:10172000F2D1A369022B04D940F2CD115F4801F038
:101730005BFFA369002B00F0AC805B4A926802F06B
:101740000C02082A00F0A780022B79D1E3693BB193
:10175000B3F5800F04D04FF4EB71544801F044FF0F
:10176000236A3F2B04D940F2D711504801F03CFFC7
:10177000636A323BB3F5BF7F04D94FF4EC714B4839
:1017800001F032FFA36A022B0AD0042B08D0062BEB
:1017900006D0082B04D040F2D911444801F024FFB0
:1017A000E36A043B0B2B04D94FF4ED713F4801F081
:1017B0001BFF00223E4B1A60FEF754FE054604E074
:1017C000FEF750FE401B022867D8374B1B6813F00A
:1017D000007FF5D1E169236A1943636A47F6C07255
:1017E00092FAA2F2B2FA82F293401943A36A5B081A
:1017F0005A1E4FF4403393FAA3F3B3FA83F302FA79
:1018000003F30B43E26A4FF0706191FAA1F1B1FA70
:1018100081F18A401343244A53600122244B1A6009
:10182000FEF720FE044604E0FEF71CFE001B022823
:1018300035D81D4B1B6813F0007FF5D0002031E038
:1018400000221B4B1A60FEF70DFE044604E0FEF773
:1018500009FE001B022824D8134B1B6813F0007FDD
:10186000F5D100201EE001201CE003201AE0032037
:1018700018E0012016E0032014E0032012E003200A
:1018800010E003200EE003200CE003200AE0032018
:1018900008E0002006E0012004E0032002E003202D
:1018A00000E0032003B030BD00380240188C00086F
:1018B0006000474270B504460D460368013B0E2B9D
:1018C00004D94FF40E71834801F08EFE072D04D920
:1018D00040F239217F4801F087FE7F4B1B6803F0FF
:1018E0000F039D4208D9EBB27B4A1370136803F0D3
:1018F0000F039D4240F0DB80236813F0020F1DD0E0
:10190000A368A3B1802B12D0902B10D0A02B0ED0A7
:10191000B02B0CD0C02B0AD0D02B08D0E02B06D097
:10192000F02B04D04FF414716A4801F05DFE6B494E
:101930008B6823F0F002A36813438B60236813F0D5
:10194000010F64D06368032B04D940F2572161482A
:1019500001F04AFE6268012A05D1604B1B6813F44E
:10196000003F0FD1A5E0931E012B05D85B4B1B68F0
:1019700013F0007F06D19EE0584B1B6813F0020F56
:1019800000F09B8055498B6823F0030313438B6061
:10199000FEF768FD06466368012B0FD107E0FEF7EE
:1019A00061FD801B41F28833984200F288804B4BE6
:1019B0009B6803F00C03042BF1D128E0022B0ED11D
:1019C00006E0FEF74FFD801B41F28833984278D83D
:1019D000424B9B6803F00C03082BF2D117E0032B5A
:1019E00010D13E4B9B68FEF73DFD801B41F28833D2
:1019F0009842F6D967E0FEF735FD801B41F2883347
:101A0000984262D8354B9B6813F00C0FF3D1324BE0
:101A10001B6803F00F039D4207D2EAB22E4B1A70E7
:101A20001B6803F00F039D4251D1236813F0040F8C
:101A300019D0E36883B1B3F5805F0DD0B3F5A05F33
:101A40000AD0B3F5C05F07D0B3F5E05F04D040F231
:101A5000B521204801F0C8FD20498B6823F4E052ED
:101A6000E36813438B60236813F0080F1AD02369CF
:101A700083B1B3F5805F0DD0B3F5A05F0AD0B3F5A5
:101A8000C05F07D0B3F5E05F04D04FF42F71114869
:101A900001F0AAFD114A936823F46043216943EAE7
:101AA000C10393600F2001F0F5FA002070BD012002
:101AB00070BD012070BD012070BD012070BD0320EC
:101AC00070BD032070BD032070BD032070BD0120D8
:101AD00070BD00BF188C0008003C02400038024076
:101AE000244B9B6803F00C03042B3FD0082B01D040
:101AF0002148704710B41F4B586800F03F005B68E6
:101B000013F4800F10D01D4BB3FBF0F0194B5A6843
:101B100047F6C0710A4091FAA1F3B3FA83F322FAAF
:101B200003F303FB00F310E0134BB3FBF0F0114B96
:101B30005A6847F6C07402EA040194FAA4F2B2FAB1
:101B400082F221FA02F202FB00F30A4A506800F422
:101B500040324FF4403090FAA0F0B0FA80F022FA10
:101B600000F001304000B3FBF0F001E003487047A3
:101B700010BC7047003802400024F40000127A00C4
:101B800008B5FFF7ADFF084B9B6803F0F002F023A8
:101B900093FAA3F3B3FA83F322FA03F3034AD35C71
:101BA000D840034B186008BD00380240088C00087C
:101BB0000C00002008B5FFF7E3FF084B9B6803F417
:101BC000E0524FF4E05393FAA3F3B3FA83F322FA0B
:101BD00003F3034AD35CD84008BD00BF003802407D
:101BE000088C000808B5FFF7CBFF084B9B6803F48F
:101BF00060424FF4604393FAA3F3B3FA83F322FAFB
:101C000003F3034AD35CD84008BD00BF003802404C
:101C1000088C00080F2303600B4B9A6802F0030244
:101C200042609A6802F0F00282609A6802F4E05220
:101C3000C2609B68DB0803F4E0530361034B1B683D
:101C400003F00F030B60704700380240003C024075
:101C5000F8B505460F4616461C4636E0B4F1FF3F80
:101C600033D02CB1FEF7FEFB069BC01A84422CD861
:101C70002A68536823F0E00353606B68B3F5827FF2
:101C80000BD1AB68B3F5004F02D0B3F5806F04D130
:101C90002A68136823F040031360AB6AB3F5005F52
:101CA0000BD12A68136823F400531B041B0C136028
:101CB0002A68136843F400531360012385F85130F8
:101CC000002385F850300320F8BD2B689B683B400B
:101CD000B342C3D10020F8BD10B582B004460092D3
:101CE0000B4600228021FFF7B3FF034620B1636D4E
:101CF00043F0200363650323184602B010BD00BF04
:101D0000704700BF002800F0D58010B50446036876
:101D1000694A93420CD0A2F57842934208D002F56A
:101D20008062934204D04FF48671644801F05CFCF9
:101D300063683BB1B3F5827F04D040F20D115F4878
:101D400001F052FCA36853B1B3F5806F07D0B3F52F
:101D5000004F04D04FF48771584801F045FCE36808
:101D6000B3F5006F05D023B140F20F11534801F0D5
:101D70003BFCA369B3F5007F08D03BB1B3F5802FDE
:101D800004D04FF488714D4801F02EFCE36993B103
:101D9000082B10D0102B0ED0182B0CD0202B0AD0D3
:101DA000282B08D0302B06D0382B04D040F211114C
:101DB000424801F019FC236A33B1802B04D04FF460
:101DC00089713E4801F010FC636A33B1102B04D0D6
:101DD00040F21311394801F007FC636A83B92369A3
:101DE00033B1022B04D04FF48B71344801F0FCFB6B
:101DF0006369012B04D940F21711304801F0F4FB5C
:101E0000A36A3BB1B3F5005F04D04FF48D712B484A
:101E100001F0EAFBA36AB3F5005F0AD1E36A013B74
:101E20004FF6FE72934204D940F21D11234801F08F
:101E3000DBFB94F8513013F0FF0F05D1002384F839
:101E400050302046FFF75CFF022384F851302268AF
:101E5000136823F04003136021686268A3681A4383
:101E6000E3681A4323691A4363691A43A36903F4B5
:101E700000731343E2691343226A1343A26A1A43AD
:101E80000A602168638B03F00402636A13434B60AA
:101E9000A36AB3F5005F02D12368E26A1A6122687F
:101EA000D36923F40063D36100206065012384F8C3
:101EB000513010BD0120704700300140488C0008AF
:101EC000F8B504460E4617461D46836823B14FF405
:101ED0009261374801F088FB94F85030012B65D0AF
:101EE000012384F8503094F85130DBB2012B0BD031
:101EF0006368B3F5827F48D1A368002B47D194F87B
:101F00005130DBB2042B44D1002E44D0002F44D0FA
:101F1000002D44D094F85130DBB2012B02D10523BF
:101F200084F85130002363652663A586E586A763A0
:101F3000A587E587E36823B11E4B23641E4B6364CA
:101F400003E01E4B23641E4B6364A36AB3F5005F7A
:101F50000BD12268136823F400531B041B0C13607D
:101F60002268136843F4005313602268536843F0F7
:101F7000E003536023681A6812F0400F11D11A6809
:101F800042F040021A6000200CE002200AE0022029
:101F900008E0022006E0012004E0012002E0012028
:101FA00000E00020002384F85030F8BD0220F8BD86
:101FB000488C0008412100080121000891200008F8
:101FC00051200008704700BF704700BF10B504469D
:101FD000FEF748FA2268536823F020035360024654
:101FE00064212046FFF778FE18B1636D43F02003AB
:101FF000636523689A6812F0100F0DD0012284F8EF
:102000005120626D42F0020262654FF6EF729A60F3
:102010002046FFF7D9FF10BD636D93B994F8513096
:10202000DBB2042B06D1012384F851302046FFF7A0
:10203000C9FF10BD012384F85130204601F092FF02
:1020400010BD012384F851302046FFF7BDFF10BDBD
:1020500008B50268036B591C01631B781373C38EA8
:10206000013B9BB2C3868BB9836AB3F5005F04D191
:102070000268136843F4805313600268536823F0C6
:1020800080035360C38F0BB9FFF7A0FF08BD00BFEB
:1020900008B5836B5A1C82630268127B1A70C38F67
:1020A000013B9BB2C3877BB9836AB3F5005F02D162
:1020B000064B036408BD0268536823F06003536055
:1020C000C38E0BB9FFF782FF08BD00BFD120000807
:1020D00000B583B000238DF8073003681A7BD2B2B5
:1020E0008DF807209DF807205A6822F060025A6098
:1020F000C38E0BB9FFF76AFF03B05DF804FB00BFA6
:1021000008B50368026B1288DA60036B023303635D
:10211000C38E013B9BB2C3868BB9836AB3F5005F64
:1021200004D10268136843F4805313600268536853
:1021300023F080035360C38F0BB9FFF747FF08BD3F
:1021400008B5836B0268D2681A80836B023383639D
:10215000C38F013B9BB2C3877BB9836AB3F5005F32
:1021600002D1064B036408BD0268536823F04003A4
:102170005360C38E0BB9FFF729FF08BD812100080A
:1021800000B583B00023ADF806300368DA6892B278
:10219000ADF80620BDF806205A6822F040025A60C9
:1021A000FFF714FF03B05DF804FB00BF10B584B067
:1021B00002685168936803F04104012C05D111F0C5
:1021C000400F02D0036C984748E013F0020F05D08F
:1021D00011F0800F02D0436C98473FE013F4B07FBA
:1021E0003CD011F0200F39D013F0400F0FD090F8F1
:1021F0005110C9B2032931D0416D41F0040141654C
:1022000000210191D168019191680191019913F028
:10221000200F0CD0416D41F0010141650021029178
:1022200091680291116821F040011160029A13F443
:10223000807F09D0436D43F0080343650023039377
:1022400003689B680393039B0268536823F0E003D1
:102250005360012380F85130FFF7B6FE04B010BD83
:1022600070B4036A23F001030362036A426884695D
:1022700024F073040D6844EA050623F002048B6819
:1022800023430F4DA84204D00E4CA04203D1012499
:1022900002E0012400E000245CB123F00803CD68D3
:1022A0002B4323F0040322F440724D6915438A69DD
:1022B0002A43426086614A684263036270BC704789
:1022C00000000140000401402DE9F04104460E46A3
:1022D000036A23F480730362056A4768C36923F0C5
:1022E00073080B6848EA030825F400738D6843EA15
:1022F0000525204B984205D003F58063984203D111
:10230000012302E0012300E000235BB3F36833B153
:10231000082B04D041F20D31174801F065F9B3697B
:10232000B3F5007F05D023B141F20E31124801F020
:102330005BF97369B3F5807F05D023B141F20F31AA
:102340000D4801F051F925F40065F36845EA0325CD
:1023500025F4806527F44057736947EA0317B3698A
:1023600047EA03176760C4F81C807368E36325625B
:10237000BDE8F08100000140788C00082DE9F041B3
:1023800004460F46036A23F480530362056AD0F8BB
:102390000480C66926F4E6430E6843EA062625F45F
:1023A00000538D6843EA0535114B984205D003F57B
:1023B0008063984203D1012302E0012300E000235F
:1023C00073B17B69B3F5807F05D023B141F25331FE
:1023D000084801F009F928F480487B6948EA831825
:1023E000C4F80480E6617B6823642562BDE8F0815F
:1023F00000000140788C0008704700BF10B504460B
:102400000368244A934237D0B3F1804F34D0A2F509
:102410007C42934230D002F5806293422CD002F588
:102420008062934228D002F58062934224D002F564
:102430008062934220D002F5704293421CD002F594
:102440007052934218D002F58062934214D002F584
:102450008062934210D0A2F5983293420CD002F5DC
:102460008062934208D002F58062934204D04FF418
:102470009A71094801F0B8F8022384F839302268CB
:10248000136843F001031360012384F839300020FE
:1024900010BD00BF00000140788C000810B5044654
:1024A0000368234A934237D0B3F1804F34D0A2F56A
:1024B0007C42934230D002F5806293422CD002F5E8
:1024C0008062934228D002F58062934224D002F5C4
:1024D0008062934220D002F5704293421CD002F5F4
:1024E0007052934218D002F58062934214D002F5E4
:1024F0008062934210D0A2F5983293420CD002F53C
:102500008062934208D002F58062934204D04FF477
:10251000B271084801F068F82268D36843F00103FB
:10252000D3602268136843F001031360002010BDDC
:1025300000000140788C0008704700BF704700BF62
:10254000704700BF704700BF704700BF704700BFB3
:1025500010B5044603681A6912F0020F17D0DA6842
:1025600012F0020F13D06FF002021A6101230376FA
:1025700003689B6913F0030F02D0FFF7E3FF04E049
:10258000FFF7DEFF2046FFF7DFFF002323762368F7
:102590001A6912F0040F19D0DA6812F0040F15D07E
:1025A0006FF004021A610223237623689B6913F4F7
:1025B000407F03D02046FFF7C5FF05E02046FFF728
:1025C000BFFF2046FFF7C0FF0023237623681A6968
:1025D00012F0080F19D0DA6812F0080F15D06FF05A
:1025E00008021A61042323762368DB6913F0030FC2
:1025F00003D02046FFF7A6FF05E02046FFF7A0FF27
:102600002046FFF7A1FF0023237623681A6912F002
:10261000100F19D0DA6812F0100F15D06FF01002F9
:102620001A61082323762368DB6913F4407F03D003
:102630002046FFF787FF05E02046FFF781FF204691
:10264000FFF782FF0023237623681A6912F0010F37
:1026500009D0DA6812F0010F05D06FF001021A619B
:10266000204600F05BFD23681A6912F0800F09D044
:10267000DA6812F0800F05D06FF080021A612046F0
:1026800000F006FD23681A6912F0400F09D0DA68DD
:1026900012F0400F05D06FF040021A612046FFF79C
:1026A00055FF23681A6912F0200F09D0DA6812F07A
:1026B000200F05D06FF020021A61204600F0E6FCE2
:1026C00010BD00BF0368454A904214D0B0F1804F5E
:1026D00013D0A2F57C42904211D002F58062904264
:1026E0000FD002F5806290420DD002F57842904200
:1026F0000BD101220AE0012208E0012206E00122BA
:1027000004E0012202E0012200E000221AB123F0DD
:1027100070034A681343314A90422CD0B0F1804F85
:102720002BD0A2F57C42904229D002F580629042E3
:1027300027D002F58062904225D002F5784290427F
:1027400023D002F57052904221D002F5806290426F
:102750001FD002F5806290421DD0A2F598329042BF
:102760001BD002F58062904219D002F5806290423F
:1027700017D1012216E0012214E0012212E0012209
:1027800010E001220EE001220CE001220AE0012209
:1027900008E0012206E0012204E0012202E0012219
:1027A00000E000221AB123F44073CA6813430360A7
:1027B0008B68C3620B688362084B984205D003F5AF
:1027C0008063984203D1012302E0012300E000234B
:1027D0000BB10B69036301234361704700000140A3
:1027E00000286DD010B504460368364A934236D0AF
:1027F000B3F1804F33D0A2F57C4293422FD002F543
:10280000806293422BD002F58062934227D002F57A
:102810008062934223D002F5806293421FD002F57A
:10282000704293421BD002F57052934217D002F5CA
:102830008062934213D002F5806293420FD0A2F5DA
:10284000983293420BD002F58062934207D002F592
:102850008062934203D0D9211B4800F0C5FEA368D3
:102860005BB1102B09D0202B07D0402B05D0602B5B
:1028700003D0DA21144800F0B7FE23694BB1B3F559
:10288000807F06D0B3F5007F03D0DB210E4800F037
:10289000ABFE94F8393013F0FF0F05D1002384F814
:1028A00038302046FFF7A8FD022384F83930211D77
:1028B0002068FFF707FF012384F83930002010BD9E
:1028C0000120704700000140788C0008002870D07B
:1028D00010B504460368384A934237D0B3F1804FAD
:1028E00034D0A2F57C42934230D002F5806293420C
:1028F0002CD002F58062934228D002F58062934288
:1029000024D002F58062934220D002F570429342B7
:102910001CD002F57052934218D002F580629342A7
:1029200014D002F58062934210D0A2F598329342FF
:102930000CD002F58062934208D002F58062934287
:1029400004D040F2F3311D4800F04EFEA36863B19D
:10295000102B0AD0202B08D0402B06D0602B04D09F
:102960004FF47D71154800F03FFE236953B1B3F574
:10297000807F07D0B3F5007F04D040F2F5310F48D7
:1029800000F032FE94F8393013F0FF0F05D1002328
:1029900084F838302046FFF7CFFD022384F8393021
:1029A000211D2068FFF78EFE012384F839300020B6
:1029B00010BD0120704700BF00000140788C000866
:1029C000002800F0C980F8B505460C460368634A44
:1029D00093421FD0B3F1804F1CD0A2F57C429342AA
:1029E00018D002F58062934214D002F580629342BF
:1029F00010D002F5784293420CD002F57052934207
:102A000008D0A2F59432934204D04FF40F61544899
:102A100000F0EAFD2368013B022B04D940F6F101E6
:102A20004F4800F0E1FDA368013B022B04D940F6BA
:102A3000F2014B4800F0D8FDA369013B022B04D9F9
:102A400040F6F301464800F0CFFD636843B1022B26
:102A500006D00A2B04D040F6F401414800F0C4FD32
:102A6000636943B1022B06D00A2B04D040F6F5016E
:102A70003B4800F0B9FDE36853B1042B08D0082BA4
:102A800006D00C2B04D040F6F601354800F0ACFD22
:102A9000E36953B1042B08D0082B06D00C2B04D0CB
:102AA00040F6F7012E4800F09FFD23690F2B04D953
:102AB00040F6F8012A4800F097FD236A0F2B04D94D
:102AC00040F6F901264800F08FFD95F8393013F0F3
:102AD000FF0F05D1002385F838302846FFF72EFD7B
:102AE000022385F83930294651F8042B936823F0E6
:102AF000070393602868FFF7E5FD296888688B69FC
:102B00000F6A2268104323F4407323F00303A26882
:102B1000A66942EA0622134323F47C4323F0FC0314
:102B2000E668E26946EA02263343226A120326690E
:102B300042EA0612134327F0AA076668626946EA6A
:102B400002123A43886029688B612B681A6201235C
:102B500085F839300020F8BD0120704700000140A1
:102B6000788C00082DE9F04104460E46036A23F0F4
:102B700010030362056AD0F80480876927F4E643EE
:102B80000F6843EA072725F020038D6843EA0515FF
:102B9000164B984205D003F58063984203D1012378
:102BA00002E0012300E00023BBB1F36833B1082B3E
:102BB00004D041F2FB110E4800F016FD25F080050F
:102BC000F36845EA031525F0400528F44068736969
:102BD00048EA8308B36948EA8308C4F80480A76117
:102BE0007368A3632562BDE8F08100BF0000014067
:102BF000788C000890F83830012B00F02E8170B5E9
:102C000016460D460446012380F8383062B1042A86
:102C10000AD0082A08D00C2A06D0182A04D040F678
:102C20003E418F4800F0E0FC2B68602B06D0702BF3
:102C300004D040F63F418A4800F0D6FCAB6833B17F
:102C4000022B04D04FF44461854800F0CDFC2B6981
:102C500033B1042B04D040F64141814800F0C4FC5C
:102C6000022384F839300C2E00F2F080DFE816F0F1
:102C70000D00EE00EE00EE005500EE00EE00EE005E
:102C80008E00EE00EE00EE00BE002368754A93420F
:102C90002FD0B3F1804F2CD0A2F57C42934228D0A4
:102CA00002F58062934224D002F58062934220D0E4
:102CB00002F5784293421CD002F57052934218D02C
:102CC00002F58062934214D002F58062934210D0E4
:102CD000A2F5983293420CD002F58062934208D05C
:102CE00002F58062934204D040F649415C4800F00E
:102CF0007BFC29462068FFF7B3FA2268936943F00A
:102D0000080393612268936923F0040393612268A6
:102D100091692B690B43936198E02368514A934270
:102D20001FD0B3F1804F1CD0A2F57C42934218D043
:102D300002F58062934214D002F58062934210D073
:102D400002F5784293420CD002F57052934208D0BB
:102D5000A2F59432934204D040F65841404800F026
:102D600043FC29462068FFF7FDFE2268936943F47F
:102D7000006393612268936923F4806393612268FE
:102D80009369296943EA012393615FE02368354A27
:102D9000934217D0B3F1804F14D0A2F57C429342F6
:102DA00010D002F5806293420CD002F5806293420B
:102DB00008D002F57842934204D040F66741284893
:102DC00000F012FC29462068FFF77EFA2268D369DA
:102DD00043F00803D3612268D36923F00403D3616D
:102DE0002268D1692B690B43D3612FE023681D4A08
:102DF000934217D0B3F1804F14D0A2F57C42934296
:102E000010D002F5806293420CD002F580629342AA
:102E100008D002F57842934204D040F6764110483B
:102E200000F0E2FB29462068FFF7A8FA2268D36980
:102E300043F40063D3612268D36923F48063D361D0
:102E40002268D369296943EA0123D361012384F805
:102E50003930002084F8380070BD0220704700BF70
:102E6000788C00080000014070B504460E461546F7
:102E7000264B98422FD0B0F1804F2CD0A3F57C4345
:102E8000984228D003F58063984224D003F58063EC
:102E9000984220D003F5784398421CD003F5705334
:102EA000984218D003F58063984214D003F58063EC
:102EB000984210D0A3F5983398420CD003F5806364
:102EC000984208D003F58063984204D041F27E21F5
:102ED0000F4800F089FB66B1042E0AD0082E08D0F6
:102EE0000C2E06D0182E04D041F27F21084800F0A5
:102EF0007BFB012303FA06F2236A23EA020323621F
:102F0000236AB5401D43256270BD00BF000001402B
:102F1000788C000838B504460D4603682D4A934264
:102F200012D0B3F1804F0FD0A2F57C4293420BD068
:102F300002F58062934207D002F58062934203D08B
:102F400002F57842934206D135B3042D24D0082DE2
:102F500022D00C2D20D0204A934202D1E5B1042D7D
:102F60001AD01E4A934200D1B5B11D4A934200D1F6
:102F700095B11C4A934202D175B1042D0CD01A4A66
:102F8000934200D145B1194A934200D125B140F294
:102F90005441174800F028FB012229462068FFF71A
:102FA00063FF23680B4A934205D002F58062934287
:102FB00003D1012202E0012200E000221AB15A6C82
:102FC00042F400425A642268136843F0010313601C
:102FD000002038BD00000140004001400044014095
:102FE0000048014000180040001C00400020004044
:102FF000788C000838B504460D460368214A934290
:103000001FD0B3F1804F1CD0A2F57C42934218D060
:1030100002F58062934214D002F58062934210D090
:1030200002F5784293420CD002F57052934208D0D8
:10303000A2F59432934204D040F67E11124800F07B
:10304000D3FA15B1042D06D00BE00122002120682F
:10305000FFF70AFF0FE0012204212068FFF704FFB9
:1030600009E0012200212068FFF7FEFE0122042171
:103070002068FFF7F9FE2268136843F0010313602C
:10308000002038BD00000140788C0008704700BF68
:10309000704700BF00B589B0002201463620FDF719
:1030A00019FE3620FDF758FE00230193174B1A6CCA
:1030B00042F010021A641B6C03F010030193019B91
:1030C00002A903A8FEF7A6FD069B13B9FEF772FD41
:1030D00002E0FEF76FFD40000D4BA3FB00239B0CAD
:1030E000013B0C480C4A026040F2E732C260436088
:1030F000002303618360FFF773FB18B90548FFF7EE
:10310000CDF900E0012009B05DF804FB0038024071
:1031100083DE1B43640100200010004008B5FDF76A
:1031200099F908BD08B50248FFF712FA08BD00BFBB
:10313000640100202DE9F04104460368814A93426E
:1031400010D0A2F54C4293420CD002F5806293421B
:1031500008D002F54C42934204D04FF4E1617A4822
:1031600000F042FAA3693BB1B3F5806F04D040F29E
:103170000971754800F038FAE3693BB1B3F5007F97
:1031800004D040F20A71704800F02EFA236A3BB175
:10319000B3F5807F04D040F20B716B4800F024FA45
:1031A00062686A4B9A4204D940F20C71664800F09A
:1031B0001BFAA3683BB1B3F5805F04D040F20D71F8
:1031C000614800F011FAE3686BB1B3F5805F0AD093
:1031D000B3F5405F07D0B3F5005F04D040F20E7145
:1031E000594800F001FA236953B1B3F5806F07D055
:1031F000B3F5C06F04D040F20F71534800F0F4F9FA
:1032000063694FF6F372134200D123B94FF4E261C0
:103210004D4800F0E9F92268D36823F00C03D3602D
:103220002068036923F47C52A169E3691943236A86
:103230001943E3680B43134343F4006303612068BD
:10324000C36823F4164222F00C02A16823691943D3
:1032500063690B43134343F40043C360226853691B
:1032600023F4407353612568364B9D4203D003F528
:1032700080639D4232D1FEF7B5FC00EB800000EB8D
:10328000800063685B00B0FBF3F3314FA7FB0323BF
:103290005B091E01FEF7A6FC00EB800000EB80003E
:1032A00063685B00B0FBF3F8FEF79CFC00EB80006A
:1032B00000EB800063685B00B0FBF3F3A7FB032324
:1032C0005B09642202FB13831B013233A7FB032338
:1032D000C3F343133343AB60BDE8F081FEF76AFCF0
:1032E00000EB800000EB800063685B00B0FBF3F351
:1032F000174FA7FB03235B091E01FEF75BFC00EBE6
:10330000800000EB800063685B00B0FBF3F8FEF721
:1033100051FC00EB800000EB800063685B00B0FBB9
:10332000F3F3A7FB03235A09642303FB12831B0156
:103330003233A7FB0323C3F343133343AB60BDE82E
:10334000F08100BF00100140A88C0008A037A00049
:103350001F85EB512DE9F04105460E4690461C466F
:10336000FDF780F80746B8F1000F26D053E0B4F11E
:10337000FF3F22D024B1FDF775F8C01B84421CD258
:103380002A68D36823F08003D3602A68D36823F0C7
:103390002003D3602A68D36823F48073D3602A683B
:1033A000536923F001035361012385F83D30002365
:1033B00085F83C300320BDE8F0812B681B6836EAB5
:1033C0000303D4D10020BDE8F081B4F1FF3F22D047
:1033D00024B1FDF747F8C01B84421CD22A68D36889
:1033E00023F08003D3602A68D36823F02003D360DE
:1033F0002A68D36823F48073D3602A68536923F062
:1034000001035361012385F83D30002385F83C30EA
:103410000320BDE8F0812B681B6836EA0303D4D093
:103420000020BDE8F08100BF704700BF00283BD0FE
:1034300010B5044603681D4A93420FD0A2F54C42D2
:1034400093420BD002F58062934207D002F54C42C2
:10345000934203D0E721164800F0C6F894F83D30B7
:1034600013F0FF0F05D1002384F83C302046FFF70E
:10347000DBFF022384F83D302046FFF75BFE226825
:10348000136923F4804313612268536923F02A03EC
:1034900053612268D36843F40053D3600020206452
:1034A000012384F83D3010BD012070470010014019
:1034B000A88C000870B51E4690F83D30DBB2012B99
:1034C0004DD104460D4600294BD0002A4BD090F830
:1034D0003C30012B49D0012380F83C3000230364A9
:1034E000122380F83D300285428525E0638D9BB232
:1034F000013B9BB26385A368B3F5805F11D133466E
:10350000002280212046FFF725FF80BB22682B8800
:10351000C3F30803536023690BB902350CE001358E
:103520000AE03346002280212046FFF713FF00BB4C
:1035300023682A785A600135638D9BB2002BD5D160
:103540003346002240212046FFF704FF034690B98E
:10355000012284F83D20002284F83C200CE0022364
:103560000AE0012308E0012306E0022304E003232C
:1035700002E0032300E00323184670BDFEE700BF0E
:1035800008B5034800F052F80120FFF7F7FF00BF2D
:10359000D88C000808B50D4B1B6813B90C4A0B4BAF
:1035A0001A600A4B1A68C31C23F003031344094929
:1035B0008B4206D904F00EFE0C2303604FF0FF305F
:1035C00008BD02490B60104608BD00BF94000020F2
:1035D000FC08002000FC012001230360014B0B606C
:1035E000704700BF0400002008B50A4601460248A3
:1035F00000F004F8FFF7C4FF2C8D00080FB400B5ED
:1036000083B004AB53F8042B01938021064804F0E7
:10361000D5FE002803DD0146034800F049F803B059
:103620005DF804EB04B070479C00002010B5044620
:1036300004F090FE0146204600F03AF801210248CD
:1036400000F036F810BD00BF1C8E00082DE9F043D5
:1036500085B004460F46435C13BB0425284621462B
:10366000ABBE04461FE03546102E28BF10250023B0
:1036700006E014F8011B04AA1A4402F8101C0133D6
:10368000AB42F6D304AA1344002203F8102CE946F7
:103690004FF0040840464946ABBE8046761B00E02A
:1036A0000E46002EDFD1384605B0BDE8F08300BFDE
:1036B00008B5FFF7CBFF08BD08B500F091F8024B45
:1036C000024A9A6008BD00BF00ED00E0000000085B
:1036D000F8B504460D4617461E462648FFF78EFFEE
:1036E00021682548FFF78AFF61682448FFF786FFB5
:1036F000A1682348FFF782FFE1682248FFF77EFFB9
:1037000021692148FFF77AFF61692048FFF776FFBA
:10371000A1691F48FFF772FFE1691E48FFF76EFFBE
:103720001D48FFF76BFF29461C48FFF767FF1C4C3D
:10373000E16A1C48FFF762FF216B1B48FFF75EFF41
:10374000E16B1A48FFF75AFF15F0800F03D0394696
:103750001748FFF753FF15F4004F03D031461548C3
:10376000FFF74CFF1448FFF749FF06991348FFF78E
:1037700045FFF8BD848D0008948D0008A48D0008D5
:10378000B48D0008C48D0008D48D0008E48D0008B5
:10379000F48D0008048E0008148E0008208E0008A6
:1037A00000ED00E0308E0008408E0008508E0008CA
:1037B000608E0008708E0008808E0008888E0008D9
:1037C00083691A888A4207D10268033A012A05D818
:1037D000023383610120704700207047002070474A
:1037E0000C4B1A6842F001021A60002199601A68B5
:1037F00022F0847222F480321A60074A5A601A68F2
:1038000022F480221A60D9604FF00062034B9A6064
:10381000704700BF003802401030002400ED00E087
:10382000224B9B6803F00C03042B07D0082B09D014
:10383000002B2DD11E4A1F4B1A602CE01E4A1D4B37
:103840001A6028E0194B5A685B6803F03F0312F4D2
:10385000800F09D0184AB2FBF3F2144B5B68C3F334
:10386000881303FB02F208E0114AB2FBF3F30F4A9C
:103870005168C1F3881101FB03F20C4B5B68C3F381
:10388000014301335B00B2FBF3F30A4A136002E029
:10389000074A084B1A60054B9B68C3F30313074A9A
:1038A000D15C044A1368CB40136070470038024073
:1038B0000024F4000C00002000127A00CC8E0008D6
:1038C0002DE9F04198B000260C960D960E964FF01B
:1038D0000108CDF83C80CDF84480139614961696D6
:1038E000159604231293CDF85C801096184FFC189F
:1038F0000CAD0FCD0FC40FCD0FC495E80F0084E8B9
:103900000F00144B3B603846FCF75EFE0A23089319
:10391000CDF8248007230A930B960B2204920222EF
:103920000592069307960C220092032201920293BD
:10393000039608A93846FDF7CFF804A93846FDF7E5
:10394000CBF869463846FDF7C7F818B0BDE8F081F6
:10395000B40100200020014030B5A3B0002316932D
:10396000179318934FF4806219924FF480521A9271
:103970004FF480421B924FF480721C924FF400323D
:103980001D921E9301221F922093219301AC16AD2C
:103990000FCD0FC40FCD0FC495E80F0084E80F00C2
:1039A00022AC054B44F8883D2046FDF751FA034B05
:1039B0009C6323B030BD00BF10640240B4010020FE
:1039C00008B50248FCF7EAFE08BD00BFB4010020BC
:1039D00008B5042202490348FCF778FF08BD00BF80
:1039E000A4010020B40100202DE9F04F9BB0002479
:1039F0000094A44B1A6B42F001021A631A6B02F096
:103A000001020092009A01941A6B42F002021A63BA
:103A10001A6B02F002020192019A02941A6B42F0B0
:103A200004021A631A6B02F004020292029A0394CF
:103A30001A6B42F008021A631A6B02F00802039232
:103A4000039A04941A6B42F010021A631A6B02F084
:103A500010020492049A05945A6C42F001025A64CE
:103A60005A6C02F001020592059A06941A6C42F013
:103A700001021A641A6C02F001020692069A079477
:103A80001A6C42F002021A641A6C02F002020792E7
:103A9000079A08941A6C42F004021A641A6C02F035
:103AA00004020892089A09941A6C42F008021A64F7
:103AB0001A6C02F008020992099A0A945A6C42F0B0
:103AC00002025A645A6C02F002020A920A9A0B9499
:103AD0005A6C42F480325A645A6C02F480320B926F
:103AE0000B9A0C945A6C42F400325A645A6C02F4E9
:103AF00000320C920C9A0D945A6C42F480225A6453
:103B00005A6C02F480220D920D9A0E941A6C42F0B7
:103B100080021A641A6C02F080020E920E9A0F94C0
:103B20001A6C42F480721A641A6C02F480720F925A
:103B30000F9A10945A6C42F480725A645A6C02F4D0
:103B400080721092109A11945A6C42F400725A6466
:103B50005A6C02F400721192119A12945A6C42F447
:103B600080625A645A6C02F480621292129A139420
:103B70001A6C42F480221A641A6C02F480221392A6
:103B8000139A14941A6C42F480421A641A6C02F468
:103B900080421492149A15941A6C42F400421A64EA
:103BA0001A6C02F400421592159A16941A6B42F49C
:103BB00000121A631A6B02F400121692169A1794E6
:103BC0001A6B42F480021A631A6B02F48002179295
:103BD000179A18941A6C42F080521A641B6C03F006
:103BE00080531893189B1994274B1A6822F480422B
:103BF0001A601B6803F480431993199B234D4FF0FF
:103C00000308C5F8008002266E60EE60AC602E618D
:103C1000DFF880B029465846FDF764FA4FF04009B6
:103C2000C5F800906E60EE60AC6009272F612946F0
:103C30005846FDF757FA4FF0800AC5F800A06E60AD
:103C4000EE60AC602F6129465846FDF74BFA4FF401
:103C500007432B6001276F60EE60AC602946584631
:103C6000FDF740FA0A4DC5F800806E60EE60AC606A
:103C70002E610BF5806B29465846FDF733FA382341
:103C80002B6009E000380240007000401002002064
:103C90004C020020000002406E60EE60AC60062323
:103CA0002B6129465846FDF71DFAC5F800A06C6047
:103CB000EE60AE6029465846FDF714FA4FF4807363
:103CC0002B606E60EE60AC60C5F8108029465846E7
:103CD000FDF708FA4FF400732B606E60EE60AC6085
:103CE000C5F8108029465846FDF7FCF94FF44063AB
:103CF0002B606E60EE60AC602F6129465846FDF780
:103D0000F1F94FF480532B606F60EE60AE6029468E
:103D10005846FDF7E7F94FF460432B606E60EE60A4
:103D2000AC6005232B6129465846FDF7DBF93F4D72
:103D30004FF0070BC5F800B0C5F80480EE60AC602A
:103D4000DFF8F4A029465046FDF7CCF908232B6094
:103D50006C60EE60AC6029465046FDF7C3F94FF445
:103D600070732B606E60EE60AC60C5F81080294601
:103D70005046FDF7B7F94FF480632B606E60EE603C
:103D8000AC60C5F810B029465046FDF7ABF94FF4CA
:103D9000C0532B606F60EE60AC6029465046FDF763
:103DA000A1F9234D9F232B606F60EE60AC600AF594
:103DB000806A29465046FDF795F9C5F800906C6079
:103DC000EE60AE6029465046FDF78CF94FF4405343
:103DD0002B606E60EE60AC602E6129465046FDF7A8
:103DE00081F9144D1F232B606F60EE60AC60DFF82B
:103DF0004C9029464846FDF775F960232B606E60AC
:103E0000EE60AC60C5F8108029464846FDF76AF9B7
:103E10004FF420632B606E60EE60AC602F6129462A
:103E20004846FDF75FF91BB0BDE8F08F2402002083
:103E300038020020FC01002000080240001002406F
:103E40002DE9F0438DB04FF4827301930026029662
:103E50004FF400630393022304934FF00108CDF85D
:103E600014804FF40073069338230793089609963D
:103E70000A960A230B93DFF898904C46214B44F89E
:103E8000043B01AD0FCD0FC40FCD0FC495E8070063
:103E900084E807001C4F3C461C4B44F8043B01AD32
:103EA0000FCD0FC40FCD0FC495E8070084E80700BD
:103EB0004846FDF727FF3846FDF724FF0520FCF7AD
:103EC000EBFE324631462420FCF704FF2420FCF7A9
:103ED00043FFD9F80020536843F0400353600520A6
:103EE000FCF7DAFE324641463320FCF7F3FE33207E
:103EF000FCF732FF3A68536843F0400353600DB05B
:103F0000BDE8F0830038004020040020003C004061
:103F1000C803002008B50248FEF748F908BD00BFF5
:103F2000C803002008B50248FEF740F908BD00BFED
:103F3000200400200A4B00221A705A709A70DA701E
:103F40001A715A719A71DA711A725A729A72DA7215
:103F50001A735A7340225A741A74DA739A73704738
:103F60001000002008B502682B4B1B689A4251D103
:103F70002A4B1B8813F4004F02D00021284A1170ED
:103F8000274A12785ABB03F00101264A9171C3F304
:103F900040015171C3F380011171C3F3C001D171AC
:103FA000C3F300119170C3F340115170C3F380113A
:103FB0001170C3F3C011D170C3F300219172C3F328
:103FC0004021D172C3F380211172C3F3C021517219
:103FD000C3F300311173C3F34033537316E051B28E
:103FE000012905D1D9B20F4AD1731B0A93730DE091
:103FF00052B2022A05D1D9B20A4A51741B0A13746B
:1040000004E00022064B1A70FFF794FF044A13786D
:104010000133137008BD00BFC80300201003002047
:104020001C010020100000202DE9F04F95B0002663
:104030000F9610964FF4A073119312960A960B9652
:104040004FF6FF730C930D96DFF8448308F10404D8
:104050000AAD0FCD0FC42060B44BC8F80030B44B8C
:104060001C1D0FAD0FCD0FC420604FF08043A4F195
:1040700014021360AF4B1C1D0FAD0FCD0FC4206099
:10408000AD4BA4F114021360AC4D2C1D0AAF0FCF41
:104090000FC42060AA4B2B60AA4C271D0DF1280EDF
:1040A000BEE80F000FC73860A74B2360A74B1F1D4A
:1040B0000DF13C0EBEE80F000FC73860A44BA7F10E
:1040C00014021360A34B1F1D0DF13C0EBEE80F0040
:1040D0000FC73860A04BA7F1140213609F4B1F1D40
:1040E0000DF13C0EBEE80F000FC738609C4BA7F1E6
:1040F000140213609B4B1F1D0DF13C0EBEE80F0018
:104100000FC73860984BA7F114021360974B1F1D1F
:104110000DF13C0EBEE80F000FC73860944BA7F1BD
:1041200014021360934B1F1D0DF13C0EBEE80F00EF
:104130000FC73860904BA7F1140213607C48FEF75C
:10414000C5FB7C48FEF7C2FB8048FEF7BFFB8148F9
:10415000FEF7BCFB8148FEF7B9FB8248FEF7B6FBD1
:104160008248FEF7B3FBA7F11400FEF7AFFB032371
:1041700001930296012303930496059606960793EE
:104180000896099601A94046FEF71AFC01A928469F
:10419000FEF716FC01A92046FEF712FC774F6021BE
:1041A00039604FF00408C7F81080A0227A60BE6022
:1041B0004FF480737B61FE60BE61F961C7F82C80AB
:1041C0003A627E623B63BE627E63DFF8C891C9F8E3
:1041D0000010C9F81080C9F80420C9F80860C9F8AF
:1041E0001430C9F80C60C9F81860C9F81C10C9F877
:1041F0002C80C9F82020C9F82460C9F83030C9F8EB
:104200002860C9F834605E4C2160C4F81080626098
:10421000A6606361E660A661E161C4F82C80226259
:1042200066622363A6626663A163C4F84880E263A2
:104230002664E364666426656165C4F86480A265EB
:10424000E665A3662666E6664E4D2960C5F81080D1
:104250006A60AE606B61EE60AE61E961C5F82C80AA
:104260002A626E622B63AE626E63DFF82CB1CBF80C
:104270000010CBF81080CBF80420CBF80860CBF806
:104280001430CBF80C60CBF81860DFF810A1CAF836
:104290000010CAF81080CAF80420CAF80860CAF8EA
:1042A0001430CAF80C60CAF8186037480160C0F8CA
:1042B0001080426086604361C66086613348016059
:1042C000C0F81080426086604361C6608661082243
:1042D00039461748FEF78EFC0C2207F11C011448E2
:1042E000FEF788FC082249461248FEF783FC0C22A0
:1042F00009F11C010F48FEF77DFC324621461348A8
:10430000FEF778FC424604F11C011048FEF772FCEF
:10431000082204F138010D48FEF76CFC0C2204F170
:1043200054010A48FEF766FC3AE000BF0000014075
:1043300068060020A807002000040040180700209D
:1043400000080040D0040020000C00407804002049
:10435000000401402805002000400140A406002080
:1043600000440140E40700200048014010060020FE
:10437000001C0040580800200020004020080020B9
:10438000A0050020E00600204C0600200C050020BF
:104390006405002054070020B40400208C0700208E
:1043A000324629460F48FEF725FC424605F11C011E
:1043B0000C48FEF71FFC324659460B48FEF71AFC24
:1043C000324651460948FEF715FC3246084909486D
:1043D000FEF710FC324608490848FEF70BFC15B002
:1043E000BDE8F08F28050020A4060020E407002087
:1043F0004C060020100600200C0500205808002064
:104400002DE9F84F2E4F3846FDF7F8FF2D4E304678
:10441000FDF7F4FF2C4C2046FDF7F0FF2B4D28460E
:10442000FDF7ECFFDFF8A8B05846FDF7E7FFDFF82F
:10443000A4A05046FDF7E2FFDFF89C904846FDF748
:10444000DDFFDFF898804046FDF7D8FF08213846A9
:10445000FEF760FD0C213846FEF75CFD0821304672
:10446000FEF758FD0C213046FEF754FD0021204692
:10447000FEF750FD04212046FEF74CFD08212046A2
:10448000FEF748FD0C212046FEF744FD002128469A
:10449000FEF740FD04212846FEF73CFD002158466A
:1044A000FEF738FD00215046FEF734FD0021484656
:1044B000FEF730FD00214046FEF72CFDBDE8F88FE9
:1044C00068060020A80700207804002028050020A6
:1044D000A4060020E4070020100600205808002051
:1044E00070B5124E3046FDF789FF114D2846FDF795
:1044F00085FF104C2046FDF781FF08213046FEF76E
:1045000079FD0C213046FEF775FD00212846FEF7A7
:1045100071FD04212846FEF76DFD08212046FEF7B7
:1045200069FD0C212046FEF765FD70BD6405002085
:1045300018070020D0040020014B586A704700BFC4
:1045400000000140014B586A704700BF000800405E
:10455000014B586A704700BF000C004047F6FF73DC
:10456000044A5362A2F57842536202F580625362B4
:10457000704700BF000001400A4B1B680A4AA2FBBB
:1045800003239B09013BB3F1807F09D2074A5360A3
:10459000F021074B83F82310002393600723136057
:1045A000704700BF0C000020D34D621010E000E007
:1045B00000ED00E0034B1B681BB1024A1368013B8E
:1045C000136070479408002008B5FBF743FFFFF71E
:1045D000F1FF0223054A06490648FDF771FC022354
:1045E000054A06490648FDF76BFC08BD100300208C
:1045F00022000020C8030020120300202400002015
:104600002004002070B588B04FF4164300930023B7
:104610000193029303930822049205930693079350
:10462000084E3446084B44F8043B6D460FCD0FC48A
:1046300095E80F0084E80F003046FEF7F7FE08B05B
:1046400070BD00BF980800200048004038B50546FE
:10465000002406E04FF4805301220448FEF72AFFAD
:10466000013429192B5D002BF4D138BD98080020A6
:104670000FB430B583B006AB53F8045B01932A4600
:104680000021084603F09AFE013003F0A9FD04461C
:10469000019A294603F0B8FE2046FFF7D7FF2046CF
:1046A00003F0A6FD03B0BDE8304004B0704700BF82
:1046B00030B595B000240194214B1A6C42F0805221
:1046C0001A641B6C03F080530193019B02941D4BF1
:1046D0001A6842F480421A601B6803F48043029314
:1046E000029B0123089309934FF480030F9308233F
:1046F00010934FF4A8731193022512950723139377
:104700000E9508A8FCF7B2FE0F23039304950594B9
:104710004FF4A05306934FF480530793052103A849
:10472000FDF7C8F8FDF72CFA074BA3FB0030800912
:10473000FCF728FB0420FCF73BFB15B030BD00BFA5
:104740000038024000700040D34D621008B5FBF7FE
:1047500067FEFFF7ADFFFFF763F808BD000000003C
:104760002DE9804885B0FFF73BF8FBF759FEFFF7CE
:104770003BF9FFF759FCFFF7F1FEFFF7A1F8FFF750
:10478000EBF8FFF73FFFFFF75BFBFFF739FEFFF7A3
:10479000A7FEFFF715F9FFF71BF9FFF7EDFEC44B76
:1047A000587C40B240384000C24A10601B7C5BB26B
:1047B000C3F140035B00C04E336000244FF08045DE
:1047C00002F012FF22462B4600F0FCFB8046894691
:1047D000306802F009FF22462B4600F0F3FB024648
:1047E0000B464046494602F0B3FD00F067FD03F07A
:1047F000FBF9B24B18607F2801DD7F221A60AF4BB6
:104800001B68132B04DC0023AA4A1360AA4A136016
:10481000A74B1B7A5BB2012B12D1A94C92A3D3E90F
:104820000023D4E9000102F093FDC4E9000190A344
:10483000D3E9002303F0C4F910B10322A14B1A609D
:104840009B4B9B7A5BB2012B17D19D4C86A3D3E97E
:104850000023D4E9000102F079FDC4E90001994B7D
:10486000186802F0C1FE84A3D3E9002303F09EF987
:1048700018B16FF00202934B1A60DFF838A2DAF831
:1048800000506D42904C284603F0E0FA20607CA76F
:10489000D7E900673046394600F006FB8046894676
:1048A000284602F0A1FE42464B4602F003FFCDE946
:1048B0000201814D286802F097FE80468946304605
:1048C000394600F03BFB02460B464046494602F0A3
:1048D000F1FE02460B46DDE9020102F037FDDFF88A
:1048E00018B203F0A9F9CBF80000DAF8000002F0E2
:1048F0007BFE8046894664A7D7E900673046394683
:1049000000F0D2FA02460B464046494602F0D2FE7B
:10491000CDE90201286802F067FE804689463046EC
:10492000394600F00BFB02460B464046494602F072
:10493000C1FE02460B46DDE9020102F009FDDFF887
:10494000BC8103F079F9C8F80000FFF7F5FD5F4F6F
:104950003860FFF7F7FD5E4E3060FFF7F9FD47F670
:10496000FF723B68D51A3D603368D31A3360A0F5F7
:10497000FF407F38574A10602B44C518564B1D60C6
:10498000564B1A6805EB0209C3F800900022544BFD
:104990004B49D1E9000102F08DFE3DA3D3E900238C
:1049A00002F088FE3CA3D3E9002302F0ADFF002211
:1049B0004C4B02F0A9FF06460F46484602F014FE93
:1049C00032463B4602F0C2FC03F00EF90346464A6B
:1049D0001060464A11680B44136002F005FE30A3D4
:1049E000D3E9002302F066FE0022002302F0B0FCAF
:1049F00006460F46284602F0F7FD2BA3D3E9002315
:104A000002F058FE02460B463046394602F0A0FC42
:104A100003F0EAF8364B186003F018FA0546014631
:104A2000206803F05DF9064620602946DBF80000A7
:104A300003F056F90746CBF800002946D8F80000E5
:104A400003F04EF90446C8F800004FF070513046AC
:104A500003F050FA274903F04DFA4FF07C5103F070
:104A600049FA05464CE000BF7B14AE47E17A843F2B
:104A7000894160E5D0220940894160E5D02209C022
:104A800065732D3852C1004065732D3852C1F03F17
:104A90005A643BDF4F568240182D4454FB21094095
:104AA0009A9999999999C93FFCA9F1D24D62503FC1
:104AB00010000020280100205001002048010020A3
:104AC0002001002040010020F4080020F008002010
:104AD000E8080020DC0800203C01002054010020F0
:104AE0000080634000405F40440100203801002006
:104AF000E008002000001643E4080020EC08002035
:104B0000684903F0EFF8684E03F044FB70602946F3
:104B1000644803F0E5F803F03DFB30624FF070515C
:104B2000384603F0E7F9614903F0E4F94FF07C51AE
:104B300003F0E0F907465B4903F0D4F85C4D03F05D
:104B400029FB68603946574803F0CAF803F022FB96
:104B500028624FF07051204603F0CCF9534903F01E
:104B6000C9F94FF07C5103F0C5F907464D4903F0F0
:104B7000B9F8504C03F00EFB60603946494803F029
:104B8000AFF803F007FB20624B4F00223146384656
:104B9000FEF730F8042206F11C013846FEF72AF829
:104BA000464E082229463046FEF724F80C2205F12D
:104BB0001C013046FEF71EF8414D082221462846CA
:104BC000FEF718F80C2204F11C012846FEF712F833
:104BD0003C4B1B68062B00F2A880DFE803F0041BA7
:104BE000253B445A7B00384B1B7B5BB2012B40F0CA
:104BF0009C8001224FF480713448FCF71DFC012297
:104C00004FF400613248FCF717FC2E4A1368013359
:104C100013608AE02C4A127B12F0FF0F40F085806F
:104C20000133284A136080E0274BDB7A5BB2012B0B
:104C30007BD101224FF400712448FCF7FDFB0122D7
:104C40004FF480512248FCF7F7FB1E4A13680133EA
:104C500013606AE01C4AD27A12F0FF0F65D101336B
:104C6000184A136061E0184B1B7B5BB2012B5CD1CF
:104C700000224FF480711548FCF7DEFB00224FF450
:104C800000611348FCF7D8FB0E4A13680133136028
:104C90004BE00D4A127B12F0FF0F46D10133094A57
:104CA000136042E000002043E006002000001643AD
:104CB000540700202008002028050020A807002015
:104CC000680600204C010020100000200000024077
:104CD00000080240604BDB795BB2012B08D1002257
:104CE0004FF400715D48FCF7A7FB01225C4B1A6092
:104CF000594B9B795BB2012B08D100224FF48051B4
:104D00005848FCF799FB0122574B1A60544B1B681B
:104D1000012B0AD1544B1B68012B06D10023504AAA
:104D20001360514A1360514A13604B4B1B785BB2BE
:104D3000012B08D14E4A136805331360452B02DD61
:104D400046224B4B1A60444B5B785BB2012B0AD175
:104D5000474A1368053B136013F1450F03DA6FF000
:104D60004502434B1A603C4B1B7813F0FF0F07D1F1
:104D7000394B5B7813F0FF0F02D100223C4B1A60D5
:104D80003B4B1B6803F1A0023A494A60C3F1A00300
:104D9000394C636000223948FDF72CFF0022214680
:104DA0003748FDF727FF374B1B68012B20D0022B1C
:104DB00027D0002B3ED1284B1B795BB2012B39D178
:104DC000314C4FF49B73E3630A23A3652F4D0822F4
:104DD00004F138012846FDF70DFF0C2204F15401BF
:104DE0002846FDF707FF274A13680133136021E0C7
:104DF000194A127912F0FF0F1CD10133214A1360B6
:104E000018E008211748FCF705FB98B91E4CA023B1
:104E1000E363A3651D4D082204F138012846FDF720
:104E2000E9FE0C2204F154012846FDF7E3FE0022BE
:104E3000144B1A60FFF7E4FA154B1B68154A126809
:104E4000154909681548006800901548FFF710FCDF
:104E5000FFF784FBA3E400BF100000200000024025
:104E60002C01002000080240340100204C010020E9
:104E7000400100204C0600200C05002010060020F8
:104E80005808002030010020A005002078040020F0
:104E9000DC080020E8080020F00800205401002071
:104EA000DC8E0008704700BF30B5224A21F0004375
:104EB000934287B01BDD204A934205DD02460B4634
:104EC00002F044FA07B030BD02AA00F0A9FF00F0DA
:104ED0000303012B1AD0022B0FD01BB30124DDE9F1
:104EE0000423DDE90201009401F09EFFEAE70022BD
:104EF000002301F079FA07B030BDDDE90423DDE9D4
:104F0000020101F071FA01F10041DBE7DDE904453E
:104F10000093DDE9020122462B4601F085FF01F1F5
:104F20000041CFE7DDE90423DDE9020101F05CFA8D
:104F3000C8E700BFFB21E93FFFFFEF7F30B51F4A05
:104F400021F00043934287B01BDD1D4A934205DDEB
:104F500002460B4602F0FAF907B030BD02AA00F093
:104F60005FFF00F003000128DDE904231AD00228C6
:104F70000FD0E0B1DDE9020101F036FA01F10041A4
:104F8000EAE7002300930022002301F04DFF07B061
:104F900030BD0124DDE90201009401F045FF01F17B
:104FA0000041D9E7DDE9020101F01EFAD4E701244E
:104FB000DDE90201009401F037FFCDE7FB21E93F75
:104FC000FFFFEF7F2DE9F04FDFF8ECA28BB01F461B
:104FD00080468946164600F0C7F99AF90030013339
:104FE00004460D4604D03046394602F065F820B933
:104FF000204629460BB0BDE8F08F4046494602F0F6
:105000005BF800228346002340BB3046394602F05D
:10501000B9FD0028ECD0A14A9AF90030A04DCDF896
:1050200020B0012100248DE806005A1CCDE9028938
:10503000CDE90467CDE90645DAD0022BD8D0684621
:1050400002F064F8002800F08B80089B1BB103F08D
:10505000C1F8089B0360DDE90601CBE740464946FD
:1050600002F090FDE8B1002200233046394602F0FC
:1050700089FD834600284AD0884A9AF90030019277
:105080000121002200240025CDE90289CDE9046731
:10509000CDE9064500910892002BD0D00020804930
:1050A000A8E72046294601F079FF834600285CD016
:1050B000002200232046294602F064FD002897D0F4
:1050C0004046494601F06AFF002891D030463946F3
:1050D00001F064FF00288BD09AF900306F4A0192EA
:1050E0000421002200240025022BCDE90289CDE90C
:1050F0000467CDE906450091089268D0684602F041
:1051000005F8002863D0089B002BA4D09FE7304609
:10511000394601F043FF00283FF46AAF0022002324
:105120003046394602F038FD00283FF461AF5B4A53
:105130009AF80030CDF820B00121CDE90289CDE9FF
:1051400004678DE80600002B3CD056490020022B56
:10515000CDE9060130D103F03DF821230360D2E709
:1051600003F038F8212303606FE74046494601F019
:1051700015FF00289CD03046394601F00FFF00286B
:1051800096D02046294601F097FF28BB434B9AF85A
:10519000004008900122CDE90289CDE904678DE83D
:1051A0000C007CB1002200231046194602F0ACFB33
:1051B000022CCDE90601CED0684601F0A7FF0028F9
:1051C000A1D1C8E700230024CDE90634F4E703F0B9
:1051D00001F82223036096E703229AF90030009237
:1051E0002E4A0192CDF820B0CDE90289CDE90467BD
:1051F0000022ABB92C4D4FF0604400234046494695
:10520000CDE9064502F0C8FCC8B9684601F07EFF4A
:1052100000287FF41AAF02F0DDFF2223036014E7B9
:10522000224D0024002340464946CDE9064502F0C0
:10523000B3FCE0B99AF90030022BE6D1EBE700228B
:105240001B4B3046394602F035FA04460D4601F054
:1052500065FF02460B462046294602F093FC0028D3
:10526000E8D1144B4FF06042CDE90623E2E700227B
:105270000F4B3046394602F01DFA04460D4601F048
:105280004DFF02460B462046294602F07BFC0028D3
:10529000D0D1044B0022CDE90623CBE7108F0008C4
:1052A0000000F03F0000F0FFFFFFEF470000F07F3D
:1052B0000000E03FFFFFEFC7260000202DE9F04788
:1052C000DFF8A0A08AB006460F4600F0CBFF9AF99F
:1052D0000030013304460D460FD03046394601F008
:1052E000EBFE50B14FF000084FF0000942464B462C
:1052F0003046394602F050FC20B9204629460AB013
:10530000BDE8F087164B9AF8004001930122002374
:10531000CDE90467CDE902670092089364B9CDE94D
:105320000689684601F0F2FE80B1089B9BB9DDE971
:1053300006010AB0BDE8F08742464B464046494662
:1053400002F0E2FA022CCDE90601EAD102F042FFB6
:1053500021230360E9E702F03DFF089B0360E6E7D5
:10536000148F0008260000202DE9F04F23F000489C
:1053700058EA020993B03CD0714C21F00046A64295
:1053800083460D460CDD06F1404606F5801656EACA
:105390000B0038D16B498346584613B0BDE8F08FF7
:1053A0009A4696462BD0A045EDDC654CA04578D0BA
:1053B000002D0F468146CDE9002376DB0024BEF1A7
:1053C000000F27D15E4B984500F08B805D4B9845D0
:1053D00052D0BAF1804F00F0C2835B4B9A4519D18D
:1053E000002D17DB4846394613B0BDE8F04F00F0FA
:1053F00039BFCB465349584613B0BDE8F08F00285B
:10540000C1D1B045D1DD514813B0BDE8F04F01F036
:105410007FBE00244846394601F0BCFDBBF1000FB9
:105420001CD0ED0F013D54EA050370D0484B984560
:1054300040F3948003F10473984540F30584454B91
:105440009E4270DDBAF1000F70DD3BA3D3E900236B
:105450001046194602F02EF983469DE726B1394BD6
:1054600025F040429A42DCD1BAF1000FC0F2B0837D
:10547000002D08DB83468FE7BAF1000FC0F2568497
:10548000CB46394688E706F1404606F5801656EACF
:10549000040300F07B84012CECD1834601F1004130
:1054A0007AE7BEF1000F83D06DE72B4B98452CDCDB
:1054B000A3F15473984581DD4FEA2853A3F2FF33DB
:1054C000142B40F34B84C3F134032EFA03F202FA97
:1054D00003F39E457FF472AF02F00102C2F10204B1
:1054E0006DE706F1404303F5801353EA0B0300F028
:1054F0003383184B9E4240F36083BAF1000F15DBF3
:10550000DDE900349B46214646E7022457E74A4638
:1055100048463B46394601F019FF02460B4602F069
:10552000F3F9834638E7BAF1000F8EDB4FF0000B3A
:10553000594631E7AFF300809C7500883CE4377E24
:105540000000F07F0000F03F0000E03F808D000889
:105550000000E041FFFFEF3FFFFF3F43B6F5801F34
:105560004FF0000205DAD44B02F0A4F86FF03402D9
:105570000E463315D14FC6F31306A3F2FF3313447F
:1055800046F07F5ABE421A460D934AF4401A40F341
:10559000C183CB4B9E4240F3FD83134601330D93F1
:1055A000C84B0022CDE9062300270026CDE9086775
:1055B000CDE90E67AAF5801A0027024653465146E8
:1055C000CDE90A23DDE9062301F0C0FEDDE906236B
:1055D00080468946DDE90A0101F0BAFE02460B4623
:1055E0000020B84902F090F90A460146CDE91012B0
:1055F000134649460246404602F05CF84FEA6A0309
:1056000043F000538C46834603F50023CDE904BCE8
:10561000DA468B46D9190023CDE902AB0293DDE9C6
:1056200002AB002006460F4602460B46504659463E
:1056300002F040F802460B464046494601F086FE1D
:10564000DDE90623804689463046394601F07EFE74
:1056500002460B46DDE90A0101F078FE52465B4640
:1056600002F028F802460B464046494601F06EFE1D
:10567000DDE9102302F01EF8DDE90467CDE906013B
:1056800032463B463046394602F014F878A3D3E957
:10569000002306460F4602F00DF877A3D3E9002356
:1056A00001F056FE32463B4602F004F874A3D3E9FB
:1056B000002301F04DFE32463B4601F0FBFF72A392
:1056C000D3E9002301F044FE32463B4601F0F2FFED
:1056D0006FA3D3E9002301F03BFE32463B4601F0C5
:1056E000E9FF6DA3D3E9002301F032FE3246804684
:1056F00089463B463046394601F0DCFF02460B4600
:105700004046494601F0D6FF524606460F465B46E4
:10571000DDE9040101F01CFEDDE9062301F0CAFF0A
:1057200032463B4601F014FE5246804689465B46AF
:105730005046594601F0BEFF0022634BCDE90A01F5
:1057400001F006FE42464B4601F002FE02980F466B
:10575000064632463B465046594601F0ABFF002212
:1057600082468B46584B3046394601F0EFFDDDE965
:105770000A2301F0EBFD02460B464046494601F084
:10578000E5FDDDE9042301F095FF324680468946B8
:105790003B46DDE9060101F08DFF02460B4640461F
:1057A000494601F0D5FD8046894602460B465046E3
:1057B0005946CDE904AB01F0CBFDDDE902AB38A3DE
:1057C000D3E9002350460F4601F074FFDDE90423BE
:1057D000CDE902013946504601F0B8FD02460B46BC
:1057E0004046494601F0B2FD2FA3D3E9002301F062
:1057F00061FF2FA3D3E900238046894650463946EE
:1058000001F058FF02460B464046494601F0A0FD14
:10581000DDE90E2301F09CFD80460D98894601F0DC
:10582000E3FE424606460F464B46DDE9020101F023
:105830008FFDDDE9082301F08BFD32463B4601F088
:1058400087FD32463B4650468B4601F07FFDDDE941
:10585000082301F07BFDDDE9022301F077FD02461C
:105860000B464046494601F071FD80462EE000BFE0
:10587000EF4E454A287ECA3F65DBC9934A86CD3F35
:1058800001411DA96074D13F4D268F515555D53F1B
:10589000FFAB6FDBB66DDB3F033333333333E33FB3
:1058A000000000E009C7EE3FFD033ADC09C7EE3F08
:1058B000F5015B14E02F3EBE000040438E980300CC
:1058C00079B60B000000F03F000008408946013C1B
:1058D00054EA0503DDE9000114BFD54CD54C002383
:1058E000CDE9043403460C46CDE90234002302938B
:1058F000DDE9024522462B4601F028FD52465B4673
:1059000001F0D8FEDDE9002306460F464046494631
:1059100001F0D0FE02460B463046394601F018FD34
:10592000224606460F462B4650465946CDE90067AB
:1059300001F0C0FE0B460246804689463046394695
:1059400001F006FDBC4B994206460D460C4640F35D
:105950000E8101F13F4303F5E003034340F0EF8183
:105960009FA3D3E90023DDE9000101F0F1FC4246E9
:1059700082468B464B463046294601F0E7FC0246FC
:105980000B465046594602F025F9002840F0D781D1
:105990002F463B154FF48012A3F2FE3342FA03F375
:1059A0002344C3F30A52A54EA2F2FF321641C3F3B9
:1059B000130B0020C2F1140523EA06014BF4801BEF
:1059C00002460B46002C4BFA05FB40464946B8BF41
:1059D000CBF1000B01F0BAFC02460B46804689462B
:1059E000DDE9000101F0B4FC4FEA0B5A00247EA36C
:1059F000D3E9002320460D4601F05CFE42460646F0
:105A00000F464B462046294601F0A0FC02460B46B5
:105A1000DDE9000101F09AFC75A3D3E9002301F050
:105A200049FE75A3D3E900238046894620462946CE
:105A300001F040FE02460B464046494601F088FC14
:105A40008046894602460B463046394601F080FCC6
:105A500032463B4604460D4601F078FC02460B46B2
:105A60004046494601F072FC2246804689462B4654
:105A70002046294601F01EFE61A3D3E90023064615
:105A80000F4601F017FE60A3D3E9002301F05EFC8E
:105A900032463B4601F00EFE5DA3D3E9002301F040
:105AA00057FC32463B4601F005FE5BA3D3E90023D9
:105AB00001F04CFC32463B4601F0FCFD58A3D3E913
:105AC000002301F045FC32463B4601F0F3FD02465F
:105AD0000B462046294601F039FC06460F46024691
